:100000000C9434000C943E000C943E000C943E0082
:100010000C943E000C943E000C943E000C943E0068
:100020000C943E000C943E000C943E000C943E0058
:100030000C943E000C943E000C943E000C943E0048
:100040000C943E000C943E000C943E000C943E0038
:100050000C943E000C943E000C943E000C943E0028
:100060000C943E000C943E0011241FBECFEFD8E04C
:10007000DEBFCDBF0E9440000C947D000C940000B8
:10008000259A249A239A229A219A2D9A2FEF81EE6B
:1000900094E0215080409040E1F700C000002D988E
:1000A0002B9A2FEF87EE93E0215080409040E1F7AC
:1000B00000C000002B98299A2FEF8DEE92E021507E
:1000C00080409040E1F700C0000029982A9A2FEF65
:1000D0008AE693E0215080409040E1F700C00000A4
:1000E0002A982C9A2FEF80E792E021508040904090
:0E00F000E1F700C000002C98C8CFF894FFCFB5
:00000001FF
